:020000040800F2
:100000002019002011020008190200081B02000834
:100010001D0200081F020008210200080000000065
:1000200000000000000000000000000023020008A3
:1000300025020008000000003B0400089D0900089C
:100040002B0200082B0200082B0200082B020008DC
:100050002B0200082B0200082B0200082B020008CC
:100060002B0200082B0200082B0200082B020008BC
:100070002B0200082B0200082B0200082B020008AC
:100080002B0200082B0200082B0200082B0200089C
:100090002B0200082B0200082B0200086F1B00082F
:1000A0002B0200082B0200082B0200082B0200087C
:1000B0002B0200082B0200082B0200082B0200086C
:1000C0002B0200082B0200082B0200082B0200085C
:1000D0002B0200082B0200082B020008EB1C000872
:1000E000B50C00082B0200082B0200082B020008A8
:1000F0002B0200082B0200082B0200082B0200082C
:100100002B0200082B0200082B0200082B0200081B
:10011000191D00082B0200082B0200082B02000802
:100120002B0200082B0200082B0200082B020008FB
:1001300000F002F800F05CF80AA090E8000C82449D
:100140008344AAF10107DA4501D100F051F8AFF27A
:10015000090EBAE80F0013F0010F18BFFB1A43F0A5
:1001600001031847A8330000C83300000A444FF0C9
:10017000000C10F8013B13F0070408BF10F8014B06
:100180001D1108BF10F8015B641E05D010F8016B4B
:10019000641E01F8016BF9D113F0080F1EBF10F8AF
:1001A000014BAD1C0C1B09D16D1E58BF01F801CBD2
:1001B000FAD505E014F8016B01F8016B6D1EF9D555
:1001C0009142D6D37047000000230024002500266A
:1001D000103A28BF78C1FBD8520728BF30C148BFAA
:1001E0000B6070471FB503F07DF81FBD10B510BD43
:1001F00002F035FE1146FFF7F5FF00F029F802F096
:1002000053FE03B4FFF7F2FF03BC02F05DFE0000F3
:100210000948804709480047FEE7FEE7FEE7FEE79A
:10022000FEE7FEE7FEE7FEE7FEE7FEE704480549D6
:10023000054A064B704700001D24000831010008E4
:100240002013002020190020201500202015002058
:1002500010B500F0EBF8044600F0B3FB4FF4165075
:1002600001F0E8FC1C223649364802F07DFD364894
:10027000008840F480704FF04021A1F80C0C4FF042
:100280001C022F492F4802F06FFD204600F0D2F8E3
:1002900001F072FC4EF6602000F0B8F84EF66020D7
:1002A00000F0B4F84FF47A7001F07FFC40F2DC50BB
:1002B00001F07BFC4FF4FA6001F077FC40F6C410CB
:1002C00001F073FC40F6B83001F06FFC4FF47A6037
:1002D00001F06BFC41F2883001F067FC41F2707074
:1002E00001F063FC002001F060FC27E040F22551A2
:1002F000134802F0F6FC68B11C221149114802F0C3
:1003000033FD124800880F49A1F1020108700878F6
:1003100001F04BFC40F225510D4802F0E2FC68B1BF
:100320001C220B49074802F01FFD0A4800880549B6
:10033000A1F102010870087801F037FCD6E700004F
:10034000004C0040320B00200C4C0040044C00409C
:10035000004800400448004010B56FF0040002F06F
:1003600036F92D4800682D49B0FBF1F02C49087092
:10037000084600784FF47A7148432949891C08805F
:1003800010BD274A127842434FF0E0235A61002201
:100390009A611A46126942F001021A6100BF4FF0D9
:1003A000E022116911F0010F02D011F4803FF6D064
:1003B0004FF0E022126922F001024FF0E0231A61AF
:1003C00000229A617047164A921C128842434FF0ED
:1003D000E0235A6100229A611A46126942F0010232
:1003E0001A6100BF4FF0E022116911F0010F02D035
:1003F00011F4803FF6D04FF0E022126922F00102A2
:100400004FF0E0231A6100229A617047002100E05A
:10041000491C8142FCD370471C0B002000127A005B
:10042000000000200400002008000020EFF31080EE
:1004300072B6704780F310887047EFF3098030B1CF
:10044000203880E8F00F5FF82410096808605FF832
:100450002C005FF82C100A680260106890E8F00F1A
:10046000203080F309884EF0040E704704484FF0A6
:10047000FF01017003484FF0805101607047000098
:1004800022ED00E004ED00E007B501AA117819B1F2
:100490001178CD4B585C14E0517829B15178CA4B92
:1004A000595C0831C8B20CE0917829B19178C64BFB
:1004B000595C1031C8B204E0D178C34B595C183193
:1004C000C8B20EBD70B5FFF7B1FF05463246BF4852
:1004D0000168E0B2FFF7D8FFBD4850F82400BD49DD
:1004E000086008460068BC490968884201D0FFF7E7
:1004F000BDFF2846FFF79EFF70BD10B5FFF796FFC2
:100500000446B54800688168B04800688843AF4930
:1005100008602046FFF78EFFFFF7D4FF10BD10B52F
:1005200008E0FFF7EAFFAD480068401CAB490860EF
:1005300000F06CF9F5E7002004E00021A44A42F83D
:100540002010401C2028F8D30121A54A11607047D3
:1005500030B5034610464FF080740460041F2046F7
:1005600023606FF00104051F28462C604FF0123401
:10057000051F28462C604FF00334051F28462C60C9
:100580004FF00234051F28462C606410051F2846D2
:100590002C60041F204621604FF01134051F2846AF
:1005A0002C604FF01034051F28462C604FF00934A2
:1005B000051F28462C604FF00834051F28462C6084
:1005C0004FF00734051F28462C604FF00634051FF6
:1005D00028462C604FF00534051F28462C604FF04C
:1005E0000434051F28462C6030BD2DE9F041044637
:1005F0000D4616461F46DDF818807948006808B990
:10060000FFF799FF724850F8280008B100BFFEE7D5
:100610006F4840F828403A4631462846FFF798FF91
:100620002060C4F80480012061688840A060002038
:10063000E06020616549A068096808436349086073
:10064000BDE8F08100BF00BFFEE710B501F094FAED
:1006500005E041F2B35001F0A8FA00BFFEE7F8E769
:1006600038B5002300935F4B0022AFF227015E48AC
:10067000FFF7BBFF012300935C4B0022AFF2350173
:100680005B48FFF7B2FF524850F824005149086018
:1006900038BD504800685449884203D154484D49F8
:1006A000086002E050484B490860704701B5694650
:1006B0000A781AB10A78444B985C14E04A782AB157
:1006C0004A78414B9A5C02F108000CE08A782AB122
:1006D0008A783D4B9A5C02F1100004E0CA783A4BEC
:1006E0009A5C02F1180008BD70B50446FFF79EFE43
:1006F000054621463848006800F07DF83648006815
:100700008168324800688843304908602846FFF70E
:1007100091FEFFF7D7FE70BD70B50446FFF786FE69
:1007200005462D48006881682848006888432749A5
:10073000086029480068C4602846FFF77BFEFFF781
:10074000C1FE70BD2DE9F04104460D461646FFF787
:100750006DFE0746E068A84204D03846FFF76AFEFF
:10076000BDE8F0810020E06026611849A0680968B2
:100770000843164908603846FFF75CFEFFF7A2FE03
:10078000EEE770B50446FFF751FE0646104850F8F4
:1007900024500E49A868096808430C49086030468F
:1007A000FFF748FE70BD70B50446FFF73FFE0546F3
:1007B000074850F8240007490860FFF757FE28460D
:1007C000FFF738FE70BD00000C3400081400002054
:1007D000500B00200800002004000020180000201A
:1007E0001C000020140E0020D00B0020141000204C
:1007F000E80B002070475F4B426843F822105E4BC5
:1008000082681B681A435C4B1A60704770B55A487F
:10081000006800B970BD584808300068008800289A
:100820004FD05548001D0068007810B35248001D95
:100830000068047800251AE014F0010F15D04D4827
:1008400050F8250038B14B4850F82500401E494962
:1008500041F8250009E00120A84047490968814383
:1008600045480160E8B2FFF78CFF64086D1C002C5E
:10087000E2D14148001D0068407810B33E48001D99
:100880000068447808251AE014F0010F15D03948A3
:1008900050F8250038B1374850F82500401E35493A
:1008A00041F8250009E00120A84033490968814347
:1008B00031480160E8B2FFF764FF64086D1C002C4A
:1008C000E2D12D4808300068408800284FD02A48DF
:1008D000001D0068807810B32748001D00688478E8
:1008E00010251AE014F0010F15D0224850F8250009
:1008F00038B1204850F82500401E1E4941F8250017
:1009000009E00120A8401C49096881431A48016098
:10091000E8B2FFF736FF64086D1C002CE2D11648E0
:10092000001D0068C07810B31348001D0068C4782B
:1009300018251AE014F0010F15D00E4850F82500C4
:1009400038B10C4850F82500401E0A4941F82500EE
:1009500009E00120A8400849096881430648016070
:10096000E8B2FFF70EFF64086D1C002CE2D1FFF720
:10097000A9FD4FE71812002020000020092801DB04
:1009800000BFFEE7094A42F82010704710B507483B
:10099000C06910B10549C869804710BD10B503484A
:1009A000006A10B10149086A804710BD9812002002
:1009B00010B514480068401C12490860FFF769FE32
:1009C00010BD10B501F0CCFA01F07CFC0E4801F02E
:1009D000DBF9042001F0FBFD012001F0D9F9012031
:1009E00001F0F1F909490820FFF7C8FF10BD10B563
:1009F000012001F0CDF910BD10B56FF0010001F03C
:100A0000C7F910BD2C0000203F190100B1090008F2
:100A100038B50446FF20ADF8000003208DF8020031
:100A20001CB114208DF8030002E048208DF803006B
:100A30006946FD4801F04EFE38BD08B50121F82099
:100A400001F0EFFB4FF49050ADF8000028208DF836
:100A5000030003208DF802006946F34801F03AFED6
:100A60004FF4F070ADF8000010208DF80300032063
:100A70008DF802006946ED4801F02CFE0D20ADF81E
:100A8000000010208DF8030003208DF80200694655
:100A9000E74801F01FFE2021E44801F0C5FE0421D3
:100AA000E34801F0C1FE0121E14801F0BFFE04214D
:100AB000DF4801F0BBFE4021DC4801F0B7FE4FF4F7
:100AC0007040ADF8000010208DF8030003208DF871
:100AD00002006946D74801F0FDFD4FF40041D548BA
:100AE00001F0A4FE4FF48051D24801F09FFE4FF474
:100AF000C050ADF8000010208DF8030003208DF8E1
:100B000002006946C94801F0E5FD4FF40061C7489D
:100B100001F08CFE4FF48051C44801F087FE4FF481
:100B20008040ADF8000028208DF8030003208DF8E8
:100B300002006946BF4801F0CDFD4FF40070ADF8EA
:100B4000000028208DF8030003208DF8020069467C
:100B5000B64801F0BFFD2020ADF8000010208DF850
:100B6000030003208DF802006946AF4801F0B2FD92
:100B70002021AD4801F05AFE08BD0EB501210846FE
:100B800001F04FFB0C21012001F0B5FE4FF4805025
:100B9000019000208DF808000C208DF8090001203C
:100BA0008DF80A0001A801F04CF928208DF800000A
:100BB00002208DF8010001208DF802008DF803005D
:100BC000684601F0B0FCFFF738FF0EBD704770B506
:100BD00004460020984908609849C1F888014FF000
:100BE0006400FFF713FC0020954908604FF0640093
:100BF000FFF70CFC00261DE025462C4605FA06F002
:100C0000C5B2ED1100208C4908601DB101208D494D
:100C1000086002E000208B4908604FF49670FFF7EF
:100C2000F5FB0120844908604FF49670FFF7EEFB56
:100C3000701CC6B2082EDFDB00207F4908604FF42D
:100C40009670FFF7E3FB01207C49C1F880014FF467
:100C50009670FFF7DBFB0020774908604FF4967031
:100C6000FFF7D4FB002400261AE001207249086037
:100C70004FF09600FFF7CAFB7348D0F8240108B183
:100C8000601CC4B26006040E3220FFF7BFFB0020D8
:100C9000694908604FF09600FFF7B8FB701CC6B2B8
:100CA000082EE2DB6420FFF7B1FB012064490860F5
:100CB000204670BD10B565480078FF2828D16448EB
:100CC0000078FF2824D19820FFF781FF5F49087042
:100CD000C820FFF79BFBD820FFF779FF5C4908701D
:100CE0006420FFF793FB59480078B02810DD57487F
:100CF0000078F0280CDA56480078002808DD5448BF
:100D00000078422804DA53480078C04351490870FB
:100D10004FF4805001F013F910BD10B50446C820FF
:100D2000FFF774FB4FF0D840048010BD10B50446A7
:100D3000C820FFF76BFB4FF0D840048410BD10B5FE
:100D40004020FFF7F3FF3020FFF7E7FF8720FFF792
:100D5000E4FF0720FFF7E1FF2720FFF7DEFF5C201D
:100D6000FFF7DBFFF020FFF7D8FF2820FFF7D5FFC4
:100D70000020FFF7D2FF6420FFF748FB4420FFF775
:100D8000D5FF0020FFF7C9FF0020FFF7C6FFEF20C7
:100D9000FFF7C3FF8020FFF7C0FF2520FFF7BDFF4F
:100DA000EF20FFF7BAFF0020FFF7B7FF4B20FFF758
:100DB000B4FF0020FFF7B1FF0020FFF7AEFF642073
:100DC000FFF724FB5A20FFF7B1FF0020FFF7A5FF34
:100DD0006420FFF71BFB5B20FFF7A8FF1D20FFF738
:100DE0009CFF6420FFF712FB5920FFF79FFF542060
:100DF000FFF793FF6420FFF709FB4C20FFF796FFF6
:100E00006420FFF703FB4620FFF790FF0020FFF769
:100E100084FF0020FFF781FF6420FFF7F7FA4220EC
:100E2000FFF784FF00241BE0000C0140001001408C
:100E300000180140002001408001234200002342AD
:100E40008C0123428801234200802142050B0020AF
:100E5000060B0020040B00200020FFF75EFF641C3F
:100E600047F6F8708442F7D310BD2DE9F043012B0B
:100E700004D0022B0BD0032B1FD113E001EB810810
:100E800000EBC808DFF8EC94C9F8008015E001EB2E
:100E9000810800EBC80808F51658DFF8D894C9F89F
:100EA00000800AE001EB810800EBC80808F59648CD
:100EB000DFF8C094C9F8008000BF00BF002603E03F
:100EC00006F1010808F0FF0612F80680B8F1100FCD
:100ED000F6DA002418E0155D102D07DBA5F12007D8
:100EE000DFF8948408EB071808F1100CDFF884840D
:100EF000D8F8008008F10108DFF87894C9F800807C
:100F000004F1010808F0FF04B442E4DBBDE8F0831B
:100F100070B504460D466420FFF778FA4F20FFF7BE
:100F200005FF6420FFF772FA4620FFF7FFFE6420FA
:100F3000FFF76CFA2846FFF7F0FE6420FFF766FA29
:100F40002046FFF7EAFE6420FFF760FA4220FFF731
:100F5000EDFE70BD2DE9F04104460D4616461F46D4
:100F6000012F04D0022F09D0032F19D10FE005EB78
:100F7000850004EBC000FF49086011E005EB850027
:100F800004EBC00000F51650FA49086008E005EBD4
:100F9000850004EBC00000F59640F649086000BFEC
:100FA00000BFF44A11785078FFF7B2FF4FF0000805
:100FB00000BF16F80800FFF7B0FE08F1020000F0CD
:100FC000FF08B8F11E0FF4DBEA480068401CE9494D
:100FD00008600A4611785078FFF79AFF4FF0010831
:100FE00007E016F80800FFF798FE08F1020000F08D
:100FF000FF08B8F11F0FF4DBBDE8F0812DE9F041E7
:1010000004460D4616461F46012F04D0022F09D074
:10101000032F19D10FE005EB850004EBC000D54983
:10102000086011E005EB850004EBC00000F51650E8
:10103000D049086008E005EB850004EBC00000F52E
:101040009640CC49086000BF00BFCA4A117850786A
:10105000FFF75EFF4FF0000800BF16F80800FFF72B
:101060005CFE08F1030000F0FF08B8F1450FF4DB67
:10107000C0480068401CBF4908600A461178507893
:10108000FFF746FF4FF0010807E016F80800FFF7EA
:1010900044FE08F1030000F0FF08B8F1460FF4DB4E
:1010A000B4480068401CB34908600A46117850787B
:1010B000FFF72EFF4FF0020807E016F80800FFF7D1
:1010C0002CFE08F1030000F0FF08B8F1470FF4DB35
:1010D000BDE8F08170B52225002426E04F20FFF7FF
:1010E00025FE4620FFF722FE2846FFF716FE1C20AD
:1010F000FFF713FE4220FFF719FE0020FFF70DFE59
:101100000020FFF70AFE002609E004EB840106EB4D
:10111000C1019A4A505CFFF700FE701CC6B2282E2F
:10112000F3DB681CC5B2601CC4B2092CD6DB70BDF1
:1011300070B54620FFF7FAFD8020FFF7EEFD252071
:10114000FFF7EBFD00251AE045B14620FFF7EEFD65
:10115000B020FFF7E2FD4A20FFF7DFFD4C20FFF74C
:10116000E5FD4220FFF7E2FD002404E0FF20FFF749
:10117000D4FD601CC4B24F2CF8DD681CC5B2012D33
:10118000E2DD4620FFF7D2FDD020FFF7C6FD252087
:10119000FFF7C3FD4F20FFF7C9FD4220FFF7C6FD53
:1011A000002404E0C020FFF7B8FD601CC4B2EB2CA3
:1011B000F8DD4620FFF7BAFDF720FFF7AEFD25204A
:1011C000FFF7ABFD4220FFF7B1FD002404E0032050
:1011D000FFF7A3FD601CC4B2EB2CF8DD70BD10B5A9
:1011E0006420FFF713F94C20FFF7A0FD6420FFF700
:1011F0000DF94620FFF79AFD0020FFF78EFD4B20EA
:10120000FFF78BFD6420FFF701F94220FFF78EFD09
:10121000002403E00020FFF780FD641CB4F5165F96
:10122000F8D310BD10B56420FFF7F0F84C20FFF79D
:101230007DFD6420FFF7EAF84620FFF777FD802068
:10124000FFF76BFD2520FFF768FD6420FFF7DEF850
:101250004220FFF76BFD002403E00020FFF75DFD57
:10126000641CB4F5165FF8D310BD10B56420FFF709
:10127000CDF84C20FFF75AFD6420FFF7C7F8462051
:10128000FFF754FD0020FFF748FD0020FFF745FD64
:101290006420FFF7BBF84220FFF748FD002403E07D
:1012A0000020FFF73AFD641CB4F5165FF8D310BDBB
:1012B00010B5FFF7DAFFFFF7B5FFFFF790FFFFF775
:1012C00037FFFFF707FF01232D4A3C210820FFF7D6
:1012D00095FE01232A4A48323C210B20FFF78EFE5F
:1012E0000123274A90323C210E20FFF787FE01237D
:1012F000234AD8323C211120FFF780FE0123214AE6
:101300003C211420FFF77AFE01231E4A48323C217B
:101310001720FFF773FE01231A4A90323C211A204E
:10132000FFF76CFE0123174AD8323C211D20FFF73E
:1013300065FE0123144ABE210C20FFF70BFE01239A
:10134000114A2032BE210E20FFF704FE01230E4A6F
:101350004032BE211020FFF7FDFD01230A4A603212
:10136000BE211220FFF7F6FD012308A2BE211420A2
:1013700016E00000000B0020980100203000002043
:10138000B8070020D8080020400A00203A2020207A
:101390002020303537342D3837353737363538005B
:1013A000FFF763FD0123FFA2CD210C20FFF75DFDB8
:1013B00010BD70B54620FFF7B9FC8020FFF7ADFCEB
:1013C0002520FFF7AAFC002563E0012D09D1462066
:1013D000FFF7ACFCD020FFF7A0FC2A20FFF79DFC14
:1013E00046E0022D09D14620FFF7A0FC2020FFF7A0
:1013F00094FC3020FFF791FC3AE0032D09D1462000
:10140000FFF794FC7020FFF788FC3520FFF785FC80
:101410002EE0042D09D14620FFF788FCC020FFF7FD
:101420007CFC3A20FFF779FC22E0052D09D146200B
:10143000FFF77CFC1020FFF770FC4020FFF76DFCED
:1014400016E0062D09D14620FFF770FC6020FFF75B
:1014500064FC4520FFF761FC0AE0072D08D1462017
:10146000FFF764FCB020FFF758FC4A20FFF755FC5B
:101470004C20FFF75BFC4220FFF758FC002404E0FF
:10148000FF20FFF74AFC601CC4B24F2CF8DD681C3B
:10149000C5B2082D99DB002623E042F2D0504FF46C
:1014A000AA6101FB0600C74908604620FFF73EFC21
:1014B000C4490878FFF731FCC2494878FFF72DFC92
:1014C0004F20FFF733FC4220FFF730FC002404E0FC
:1014D000C020FFF722FC601CC4B2202CF8DB701C7B
:1014E000C6B2072ED9DB002623E042F2F7504FF4B4
:1014F000AA6101FB0600B34908604620FFF716FC0D
:10150000B0490878FFF709FCAE494878FFF705FCB9
:101510004F20FFF70BFC4220FFF708FC002404E0FB
:101520000320FFF7FAFB601CC4B2202CF8DB701C10
:10153000C6B2072ED9DB002623E042F629304FF44D
:10154000AA6101FB06009F4908604620FFF7EEFBF9
:101550009C490878FFF7E1FB9A494878FFF7DDFBE3
:101560004F20FFF7E3FB4220FFF7E0FB002404E0FD
:101570000320FFF7D2FB601CC4B2202CF8DB701CE8
:10158000C6B2062ED9DB002623E042F633304FF4F4
:10159000AA6101FB06008B4908604620FFF7C6FBE5
:1015A00088490878FFF7B9FB86494878FFF7B5FB0B
:1015B0004F20FFF7BBFB4220FFF7B8FB002404E0FD
:1015C0000320FFF7AAFB601CC4B2202CF8DB701CC0
:1015D000C6B2062ED9DB002623E042F63D304FF49A
:1015E000AA6101FB0600774908604620FFF79EFBD1
:1015F00074490878FFF791FB72494878FFF78DFB33
:101600004F20FFF793FB4220FFF790FB002404E0FC
:101610000320FFF782FB601CC4B2202CF8DB701C97
:10162000C6B2062ED9DB70BD10B5FFF71EFEFFF760
:10163000F9FDFFF7D4FDFFF7BCFE012362A20A21EA
:101640000820FFF712FC0123604A05210A20FFF75A
:10165000D5FC01235D4A483205210E20FFF7CEFC60
:1016600001235A4A903205211220FFF7C7FC0123BB
:10167000564AD83205211620FFF7C0FC0123544AF0
:1016800005211A20FFF7BAFC0123524A2C211846E3
:10169000FFF760FC01234F4A20322C210320FFF783
:1016A00059FC01234CA22C210520FFF7DEFB01236E
:1016B000484A4E211846FFF74DFC0123454A203287
:1016C0004E210320FFF746FC012344A24E210520B2
:1016D000FFF7CBFB01233F4A70211846FFF73AFC86
:1016E00001233C4A203270210320FFF733FC012301
:1016F0003BA270210520FFF7B8FB0123354A922158
:101700001846FFF727FC0123324A2032922103209A
:10171000FFF720FC012333A292210520FFF7A5FB50
:1017200001232C4AB4211846FFF714FC0123294A4F
:101730002032B4210320FFF70DFC01232AA2B4219B
:101740000520FFF792FB0123224AD6211846FFF716
:1017500001FC01231F4A2032D6210320FFF7FAFBA8
:10176000012322A2D6210520FFF77FFB0123194A7E
:101770002C211520FFF7EEFB0123164A20322C21E5
:101780001720FFF7E7FB012319A22C211920FFF7EF
:101790006CFB01230F4A4E211520FFF7DBFB0123D1
:1017A0000C4A27E053756E7269736520496E737435
:1017B00072756D656E747320434F2E2C4C54442EFD
:1017C00000000000000B00204100000090080020F5
:1017D000F8090020C00A002031203A0032203A00E7
:1017E00033203A0034203A0035203A0036203A00BF
:1017F00037203A0020324E211720FFF7ABFB0123A0
:10180000A5A24E211920FFF730FB0123A34A702126
:101810001520FFF79FFB0123A04A203270211720DB
:10182000FFF798FB01239EA270211920FFF71DFBF3
:1018300001239A4A92211520FFF78CFB0123974A36
:10184000203292211720FFF785FB012395A29221D8
:101850001920FFF70AFB0123904AB4211520FFF756
:1018600079FB01238D4A2032B4211720FFF772FB48
:1018700001238DA2B4211920FFF7F7FA0123874A2B
:10188000D6211520FFF766FB0123844A2032D6219A
:101890001720FFF75FFB012384A2D6211920FFF751
:1018A000E4FA012382A22C211220FFF7DEFA0123A1
:1018B0007FA22C212620FFF7D8FA01237CA24E21FB
:1018C0001220FFF7D2FA012379A24E212620FFF73A
:1018D000CCFA012376A270211220FFF7C6FA012369
:1018E00073A270212620FFF7C0FA012370A2922173
:1018F0001220FFF7BAFA01236DA292212620FFF7EA
:10190000B4FA01236AA2B4211220FFF7AEFA012330
:1019100067A2B4212620FFF7A8FA012364A2D621EA
:101920001220FFF7A2FA012361A2D6212620FFF799
:101930009CFA10BD10B50446E0B2FFF7EEF910BDF9
:1019400010B504462046FFF7F1F910BD70B500252B
:1019500030E04F20FFF7F4FF6420FEF757FD4620EC
:10196000FFF7EEFF6420FEF751FD52490878FFF7BC
:10197000D4F96420FEF74AFD4E494878FFF7CDF9C7
:101980006420FEF743FD4220FFF7D0F96420FEF704
:101990003DFD002404E0FF20FFF7CCFF601CC4B233
:1019A000022CF8DB4348006800F58070414908606C
:1019B000681CC5B2262DCCDB70BD70B5002530E0AB
:1019C0004F20FFF7BDFF6420FEF720FD4620FFF704
:1019D000B7FF6420FEF71AFD36490878FFF79DF936
:1019E0006420FEF713FD33494878FFF796F9642029
:1019F000FEF70CFD4220FFF799F96420FEF706FD83
:101A0000002404E0FF20FFF795FF601CC4B2022C05
:101A1000F8DB2848006800F5807026490860681CDB
:101A2000C5B2262DCCDB70BD70B505466420FEF72F
:101A3000EDFC4F20FFF784FF6420FEF7E7FC462013
:101A4000FFF77EFF6420FEF7E1FC1A490878FFF7F4
:101A500064F96420FEF7DAFC16494878FFF75DF96F
:101A60006420FEF7D3FC4220FFF760F96420FEF704
:101A7000CDFCC020FFF75EFF042409E01DB9C020A3
:101A8000FFF758FF02E00620FFF754FF601CC4B2C6
:101A9000EC2CF3DB70BD000038203A00C00A0020B7
:101AA00039203A0031303A0031313A0031323A00CF
:101AB00056000000000B002008B50320ADF8000020
:101AC00010208DF8030003208DF802006946284895
:101AD00000F000FE0221264800F0A8FE0121244863
:101AE00000F0A4FE08BD1FB50121102000F099FBF5
:101AF0004FF48060ADF8000010208DF803006946B7
:101B00001B4800F0E7FD0121082000F08AFB4FF49C
:101B10008070ADF8000028208DF803006946154854
:101B200000F0D8FD0121084600F07BFB07210620CC
:101B300000F0E1FE8020029000208DF80C000820CB
:101B40008DF80D0001208DF80E0002A800F079F943
:101B500017208DF8040002208DF805008DF806008E
:101B600001208DF8070001A800F0DDFC1FBD7047C3
:101B700000100140000C014008B50121202000F0B8
:101B800050FB4FF6FF70ADF8000003208DF8020007
:101B900010208DF803006946234800F09BFD4FF4A8
:101BA0000051214800F040FE08BD7FB504460025E5
:101BB000002641F63800844200DD7FBD4FF400511D
:101BC000194800F033FE204601F0FAF9CDE9020190
:101BD00016A00CC8029801F0F9F9CDE9000101F056
:101BE0007FF90646304601F051FBC0F30B0412E0CA
:101BF00014F0010F06D00120A84081B20A4800F07D
:101C000013FE05E00120A84081B2074800F00EFE57
:101C10006410681CC5B20C2DEADB4FF40051024879
:101C200000F002FEC9E7000000140140894160E5B0
:101C3000D022E53F10B586B004460121112000F006
:101C4000F0FA0121C80400F0F9FA4A4800F088FED1
:101C50004FF48060ADF8140003208DF816001820B2
:101C60008DF8170005A9444800F034FD4FF40060DA
:101C7000ADF8140004208DF8170005A93E4800F0C7
:101C800029FD4FF4C06000F049FC34208DF81000AD
:101C900003208DF8110000208DF8120001208DF82E
:101CA000130004A800F03FFC00940020ADF80400ED
:101CB000ADF80600ADF80800ADF80C000C20ADF84A
:101CC0000A0069462B4800F08EFE012240F22551A1
:101CD000284800F01FFF0121264800F00FFF402197
:101CE000244800F0F5FF06B010BD10B540F22551B4
:101CF000224800F0F6FF70B140F225511F4801F074
:101D00001AF840211D4801F016F81C4800F069FF40
:101D10000446FFF74AFF10BD10B51C2215491848AC
:101D200001F022F8174800881549A1F10201087056
:101D300040F225510F4800F0D4FF70B140F2255118
:101D40000C4800F0F8FF40210A4800F0F4FF094871
:101D500000F047FF0446FFF728FF40F227710548CF
:101D600000F0BFFF20B140F22771024800F0E3FF0E
:101D700010BD0000004C0040001001400048004031
:101D8000320B0020044C00404FF0E02148617047C6
:101D9000012808D14FF0E021096941F001014FF01D
:101DA000E02211610EE0811C08D14FF0E0210969A9
:101DB00021F001014FF0E022116103E000214FF01A
:101DC000E0229161704740B14FF0E021096941F094
:101DD00002014FF0E022116107E04FF0E0210969B4
:101DE00021F002014FF0E022116170474FF0E02036
:101DF0008069704710B50146002200230020CB10F7
:101E0000022B03D14FF0E024226902E04FF0E024DE
:101E1000E26901248C40144201D0012000E000203E
:101E200010BD00000020474908604749C1F804047C
:101E30004649086001F104010860454845490860C9
:101E4000704700213F498279002A43D03E4AD2F8A8
:101E5000002403689A433C4BC3F800241A46D2F886
:101E6000042403689A4301F104031A6002791144BF
:101E70000A68036842EA03020A60334AD2F8082477
:101E8000036822EA0302304BC3F808241A46D2F84A
:101E90000C24036822EA03022F4B1A604279102AAD
:101EA00010D1294AD2F8082403681A43264BC3F8F4
:101EB00008241A46D2F80C2403681A43224BC3F8AC
:101EC0000C240DE01F49427911440A6803681A4343
:101ED0000A6005E0027911440A6803689A430A60BF
:101EE00070470021016001710C2141710021817155
:101EF00070471A49096841EA0001134AC2F81014F0
:101F0000704701460020134A12680A4201D001209E
:101F100000E0002070470F4908607047014600202C
:101F20000022084B1B6803EA0102074BD3F8143464
:101F30000B4202D00AB1012000E0002070470549A1
:101F4000086070470004014000000140080401409F
:101F5000FFFF0F00140401400C0401401004014075
:101F6000F048006840F00100EE490860084640680B
:101F7000ED490840EB49486008460068EB490840D5
:101F8000E84908600846006820F480200860084698
:101F9000406820F4FE0048604FF41F0088607047DE
:101FA000E049096821F48031DE4A11601146096870
:101FB00021F480211160B0F5803F03D0B0F5802F6F
:101FC0000ED106E0D749096841F48031D54A116045
:101FD00007E0D449096841F4A021D24A116000E029
:101FE00000BF00BF704710B501460022002300204B
:101FF0004A11012A02D1CB4C236806E0022A02D101
:10200000C84C236A01E0C74C636A01F01F02012437
:1020100094401C4201D0012000E0002010BD70B5AA
:1020200000240025002600BF3120FFF7DCFF064614
:10203000641CB4F5A06F01D0002EF5D03120FFF75D
:10204000D2FF08B1012500E00025284670BD00211F
:10205000B44A116821F0F80141EAC00111607047EB
:10206000B349086070470022AE4B5A6822F47C12D4
:1020700040EA01031A43AB4B5A607047AC4908660B
:1020800070470021A74A516821F0030101435160C4
:102090007047A448406800F00C0070470021A14A36
:1020A000516821F0F00101435160704700219D4AC1
:1020B000516821F4E0610143516070470021994A61
:1020C000516821F4605141EAC0015160704729B163
:1020D000944A527A0243934B5A7206E0914A527ADA
:1020E000C343DBB21A408F4B5A7270479149086064
:1020F000704700218B4A516821F4404101435160EF
:10210000704700218C4A1170864A82F820100128FD
:1021100002D0042808D103E00121874A117004E0AD
:102120000521854A117000E000BF00BF7047834958
:10213000086070477B49096A01437A4A1162704717
:102140007F490860704730B5002100220023002439
:10215000744D6D6805F00C0121B1042905D00829E2
:1021600023D105E0774D056022E0764D05601FE044
:102170006C4D6D6805F470126A4D6D6805F480331E
:10218000022505EB92421BB96F4D554305600BE0EC
:10219000644D6D6815F4003F03D06B4D55430560E9
:1021A00002E0684D5543056002E0664D056000BFE2
:1021B00000BF5C4D6D6805F0F0010909634D6C5C72
:1021C0000568E5404560574D6D6805F4E061090A12
:1021D0005E4D6C5C4568E5408560524D6D6805F468
:1021E0006051C90A594D6C5C4568E540C5604D4D6C
:1021F0006D6805F44041890B544D10356C5CC56821
:10220000B5FBF4F5056130BD29B1464A5269024378
:10221000444B5A6104E0434A52698243414B5A613C
:10222000704729B13F4A926902433E4B9A6104E0EC
:102230003C4A926982433B4B9A61704729B1394AC3
:10224000D2690243374BDA6104E0364AD2698243ED
:10225000344BDA61704729B1324AD2680243314BBC
:10226000DA6004E02F4AD26882432E4BDA6070476E
:1022700029B12C4A126902432A4B1A6104E0294A07
:1022800012698243274B1A617047314908607047D1
:102290002749C86470472349C87170472148406A7C
:1022A00040F080701F4948627047014600201D4A77
:1022B00092680A4201D0012000E0002070471949CD
:1022C0008872704710B5FFF74BFE4FF48020FFF780
:1022D00067FEFFF7A4FE0446012C1ED10020FFF785
:1022E000DDFE0020FFF7EAFEA002FFF7DFFE4FF45D
:1022F000E0112004FFF7B7FE0120FFF7BFFE00BF8B
:102300003920FFF770FE0028FAD00220FFF7B9FE4F
:1023100000BFFFF7BEFE0828FBD101211C20FFF7FC
:1023200080FF10BD001002400000FFF8FFFFF6FE26
:1023300000004242D8004242201002408004424243
:102340003C04424200127A0000093D00070B0020C5
:102350004004424200200021674A126842F4803261
:10236000654B1A6000BF644A126802F40031401CD9
:1023700011B9B0F5A06FF6D15F4A126812F4003FB0
:1023800001D0012100E00021012942D15B4A1268FD
:1023900042F01002594B1A601A46126822F00302EA
:1023A0001A601A46126842F002021A60524A5268D3
:1023B000514B5A601A4652685A601A46526842F4A3
:1023C00080625A601A46526822F47C125A601A4699
:1023D000526842F4E8125A601A46126842F080725B
:1023E0001A6000BF444A126812F0007FFAD0424AD5
:1023F000526822F00302404B5A601A46526842F07B
:1024000002025A6000BF3C4A526802F00C02082ADD
:10241000F9D1704710B5FFF79DFF10BD10B53648D4
:10242000006840F0010034490860084640683449BB
:1024300008403149486008460068324908402E4942
:1024400008600846006820F480200860084640685C
:1024500020F4FE0048604FF41F008860FFF7DAFFA9
:102460004FF000602849086010BD10B50020002121
:102470000022214B5B6803F00C0020B1042806D039
:10248000082828D107E0214B214C236027E01F4B6F
:102490001F4C236023E0184B5B6803F47011164B4C
:1024A0005B6803F48032022303EB914122B9194B9C
:1024B0004B43174C23600DE00F4B5B6813F4003F58
:1024C00004D0144B4B43124C236003E00F4B4B439F
:1024D0000F4C236003E00D4B0D4C236000BF00BF89
:1024E000054B5B68C3F303130B4CE05C084B1B68A4
:1024F000C340074C236010BD001002400020024082
:102500000000FFF8FFFFF6FE08ED00E000127A0081
:102510001C0B002000093D00200B00203649014320
:10252000364A1160704770B5002100230F22C4782D
:102530004CB3324C246804F4E064C4F5E0644FEA20
:102540001421C1F1040322FA01F2447804FA03F1E0
:10255000847804EA020444EA01014FEA0111284C9C
:102560000678A155047804F01F054FF0010404FA21
:1025700005F405784FEA65154FF0E02606EB850572
:10258000C5F8004109E0047804F01F040125A540C6
:102590001C4C0678761144F8265070BD1A4A0A4041
:1025A00002431A4B1A60704741B1194A126842EA55
:1025B00000024FF0E023C3F8102D07E0144A126820
:1025C00022EA00024FF0E023C3F8102D70470428E0
:1025D00008D14FF0E021096941F004014FF0E022F9
:1025E000116107E04FF0E021096921F004014FF08B
:1025F000E0221161704700000000FA050CED00E0D8
:1026000000E400E080E100E080FFFF1F08ED00E053
:1026100010ED00E010B50446C748844208D10121FE
:102620000420FFF718FE00210420FFF714FE46E007
:10263000C248844208D101210820FFF70CFE002186
:102640000820FFF708FE3AE0BD48844208D1012186
:102650001020FFF700FE00211020FFF7FCFD2EE008
:10266000B848844208D101212020FFF7F4FD002161
:102670002020FFF7F0FD22E0B348844208D1012179
:102680004020FFF7E8FD00214020FFF7E4FD16E0C1
:10269000AE48844208D101218020FFF7DCFD0021F3
:1026A0008020FFF7D8FD0AE0A948844207D1012124
:1026B0008015FFF7D0FD0021A015FFF7CCFD10BD60
:1026C00010B501210846FFF7C6FD00210120FFF7E4
:1026D000C2FD10BD2DE9F041002200230024002599
:1026E0000026002791F803C00CF00F0291F803C0F8
:1026F0001CF0100F03D091F802C04CEA0202B1F8AE
:1027000000C01CF0FF0F31D0066800242BE04FF012
:10271000010C0CFA04F5B1F800C00CEA0503AB4259
:1027200020D1A5004FF00F0C0CFA05F7BE4302FABA
:1027300005FC4CEA060691F803C0BCF1280F06D14F
:102740004FF0010C0CFA04FCC0F814C00AE091F838
:1027500003C0BCF1480F05D14FF0010C0CFA04FC8A
:10276000C0F810C0641C082CD1D30660B1F800C0BA
:10277000BCF1FF0F34DD466800242EE004F1080CA4
:102780004FF0010808FA0CF5B1F800C00CEA050397
:10279000AB4221D1A5004FF00F0C0CFA05F7BE4358
:1027A00002FA05FC4CEA060691F803C0BCF1280FBA
:1027B00005D104F1080C08FA0CF8C0F8148091F85F
:1027C00003C0BCF1480F07D104F1080C4FF0010819
:1027D00008FA0CF8C0F81080641C082CCED34660B0
:1027E000BDE8F0814FF6FF71018002218170042164
:1027F000C17070470246002093680B4201D001204F
:1028000000E0002070470146886880B270470246A9
:102810000020D3680B4201D0012000E00020704767
:102820000146C86880B270470161704741617047D6
:102830000AB1016100E041617047C16070474FF427
:1028400080320A4382618161826182698269704754
:102850000022404B1A684FF680731A4042EA001279
:102860000A433C4B1A6070473B49C8617047F0B55A
:10287000002200230024002500F00046B6F1004F9E
:1028800002D1344EF46901E0324E7468C0F303455E
:1028900082B200F44016B6F5401F08D124F07064EF
:1028A0002C4E766826F070662A4F7E6012E000F4A7
:1028B0008016B6F5801F06D1032606FA05F39C4361
:1028C00044F0706406E0460D360102FA06F6B443A1
:1028D00044F0706421B1460D360102FA06F6344325
:1028E00000F00046B6F1004F02D11A4EF46101E04B
:1028F000184E7460F0BD30B500228B071C0F0F23FB
:1029000003FA04F2134B08338C1053F82440944319
:102910008D1043F825408C1053F824308C07240F79
:1029200000FA04F423430B4C08348D1044F825308E
:1029300030BD0A490860704700080140000C0140A2
:10294000001001400014014000180140001C01402B
:10295000002001400000014000002042DC00204235
:1029600010B50446FB48844209D101218803FFF7D2
:1029700072FC00214FF48040FFF76DFC32E0F64816
:10298000844209D101214804FFF772FC00214FF471
:102990000030FFF76DFC25E0F048844209D10121A9
:1029A0008804FFF765FC00214FF48020FFF760FCEE
:1029B00018E0EB48844209D10121C804FFF758FC14
:1029C00000214FF40020FFF753FC0BE0E548844260
:1029D00008D101210805FFF74BFC00214FF48010BE
:1029E000FFF746FC10BD2DE9F04786B004460D46C2
:1029F0000026002700BFB146B246A88900B100BF3B
:102A0000A246268A4CF6FF700640E88806432682D6
:102A1000A6894EF6F3100640A888298908436989DB
:102A200008430643A681A68A4FF6FF400640A889C0
:102A30000643A68201A8FFF786FB5446C548824597
:102A400001D1049F00E0039FA08910F4004F08D03B
:102A500007EBC70000EB071029684900B0FBF1F84D
:102A600007E007EBC70000EB071029688900B0FBFF
:102A7000F1F86420B8FBF0F006013009642101FB95
:102A80001089A08910F4004F09D0322101EBC90050
:102A90006421B0FBF1F000F00700064308E03221AA
:102AA00001EB09106421B0FBF1F000F00F000643C8
:102AB000268106B0BDE8F0874FF416510160002171
:102AC0008180C18001810C21418100218181704779
:102AD00010B50022028A4FF2FF031A400B884C887F
:102AE00023438C882343CC8823431A43028210BD9E
:102AF0000021018041808180C180704721B182899D
:102B000042F40052828104E082894DF6FF731A403C
:102B100082817047F0B50024002500260023A1F52E
:102B200010676A3F00D100BF0346C1F3421401F0B1
:102B30001F05012707FA05F6012C01D10C3304E02B
:102B4000022C01D1103300E014331AB11F6837434F
:102B50001F6002E01F68B7431F60F0BD10B51AB1D7
:102B6000838A0B43838204E0838ACC43A4B223404C
:102B7000838210BD028A4FF6F0731A400282028AE5
:102B80000A430282704782894FF2FF731A408281A2
:102B900082890A438281704721B1828942F0020210
:102BA000828104E082894FF6FD731A40828170476A
:102BB000028A4FF6DF731A400282028A0A430282B7
:102BC000704721B1028A42F48042028204E0028A04
:102BD0004BF6FF731A4002827047C1F308028280ED
:102BE000704701468888C0F308007047818941F02A
:102BF000010181817047028BD2B20283028B42EACB
:102C0000012202837047028B02F47F420283028B0F
:102C10000A430283704721B1828A42F020028282F5
:102C200004E0828A4FF6DF731A408282704721B136
:102C3000828A42F01002828204E0828A4FF6EF73A9
:102C40001A408282704721B1828A42F00802828251
:102C500004E0828A4FF6F7731A408282704721B1EE
:102C6000828942F40042828103E08289C2F30E022B
:102C70008281704721B1828A42F40062828204E03C
:102C8000828A4FF2FF731A4082827047828A4FF61F
:102C9000FB731A408282828A0A438282704721B182
:102CA000828A42F00202828204E0828A4FF6FD7339
:102CB0001A408282704702460020B1F5007F00D1A1
:102CC00000BF13880B4201D0012000E000207047B4
:102CD00001F40072B2F5007F00D100BFCA43028048
:102CE000704770B502460023002400250020A1F59E
:102CF00010666A3E00D100BFC1F3421501F01F0407
:102D0000012606FA04F4012D02D19689344006E02A
:102D1000022D02D1168A344001E0968A34400B120B
:102D2000012606FA03F31688334014B10BB10120D3
:102D300000E0002070BD10B500220023A1F5106452
:102D40006A3C00D100BF0A1201249440A3B2DC43C4
:102D5000048010BD0038014000440040004800409D
:102D6000004C004000500040032A40F2318010F037
:102D7000030C00F0158011F8013BBCF1020F624416
:102D800098BF11F801CB00F8013B38BF11F8013BA7
:102D9000A2F1040298BF00F801CB38BF00F8013B54
:102DA00011F0030300F02980083AC0F0098051F8BF
:102DB000043B51F804CB40F8043B40F804CBF3E764
:102DC000121D5CBF51F8043B40F8043BAFF3008098
:102DD000D20724BF11F8013B11F801CB48BF11F80D
:102DE000012B24BF00F8013B00F801CB48BF00F8DD
:102DF000012B704770477047704710B5203AC0F0FC
:102E00000B80B1E81850203AA0E81850B1E81850EB
:102E1000A0E81850BFF4F5AF5FEA027C24BFB1E828
:102E20001850A0E8185044BF18C918C0BDE8104099
:102E30005FEA827C24BF51F8043B40F8043B08BFA2
:102E40007047D20728BF31F8023B48BF11F8012B69
:102E500028BF20F8023B48BF00F8012B7047754699
:102E600000F028F8AE4605006946534620F00700FA
:102E7000854618B020B5FDF7D9F9BDE820404FF0E0
:102E800000064FF000074FF000084FF0000B21F054
:102E90000701AC46ACE8C009ACE8C009ACE8C00921
:102EA000ACE8C0098D4670470446AFF30080204669
:102EB000FDF7A7F900487047BC1200200148704791
:102EC00070470000C012002003494FF01800ABBE4D
:102ED0007047000009000000260002007047000053
:102EE00001F0004321F0004181EA410212F0FE4F5F
:102EF00008BF12F4600F00F02880A1F16051B1F515
:102F0000801F1BDB02014FF0404C09D803D208BFE1
:102F10004FF0000C0AE000F000521CEB820C05D4CC
:102F200010F100504FF0804C41F10001B1F17F6F82
:102F300006DA43EAC10343EA507070471846704707
:102F40004FF0FF0243EAC250704711F4801F01D1D5
:102F500018467047DFF818C041EA030150EA013211
:102F600040F01080AFF3008021F4E00070470000D3
:102F70008800000402494FF0000000F0FDB9000095
:102F80000000F87F02494FF0000000F0F5B90000A2
:102F90000000F87F10F0004314BF4142014643F0A7
:102FA0008043B1FA81FC03F1F87311FA0CF1A3EB41
:102FB0000C534FEA415008BF704703EBE1217047C3
:102FC0004FF080430146FFF7ECBF0000DFF8B4C1CB
:102FD00070B53CEA111E18BF3CEA131E00F0A68033
:102FE00081EA03050CEA111E4EEAD57E1CEA131590
:102FF00018BF11EA0C1F00F08F80AE4421EA4C117B
:1030000023EA4C13AEF17F7E41F4801143F4801328
:10301000A1FB024CA0FB0365361955EB0C05A1FB87
:10302000034C4CF10003A0FB021C16EB0C0665419F
:1030300053F10003094218BF46F001064FF0140C8B
:10304000B3F5007F4CF1000CCCF1200425FA0CF212
:1030500003FA04F141EA020105FA04F026FA0CF23F
:1030600040EA02006FF0030242EB2E4216FA04F42B
:1030700001EB025585EACE7115D05FEA440C38BFEA
:103080004FF040440FD308BF43F0004350F100001D
:1030900041F1000110EAD37F4FF0804420EAD37061
:1030A00018BF4FF0404415F0004FDFF8DCC017D4D4
:1030B00015EA0C0F18BF3CEA010C11D070BD5FEA95
:1030C000CE7454BF1CF4000F1CF4800F0ABF4FF0E5
:1030D00080444FF0404410F1010041F10001E2E76B
:1030E000BEF1806FA2BFA1F1C04144F0130C4CF0BF
:1030F000805CBDE8704006DA4FF0000001F1C0418D
:1031000001F0004170476FF0000041EA500181EA90
:1031100010314FF0000070474FEACE714FF00000C1
:1031200070BD4FEACE714FF0000070BD4FEA41050F
:10313000B5EB4C1F4FEA430608BF002898BFB6EB1B
:103140004C1F08BF002ABDE87040DFF840C03FF6C2
:1031500011AFAFF300804FF4001CBCEB410F98BFE0
:10316000BCEB430F0AD84FF0000081EA030101F0E5
:10317000004141F0FE4141F47001704704494FF0B5
:10318000000070470000FF070000F07F13000004FC
:103190000000F87F094248BF4CF4803C4FF4C06304
:1031A0004FEA115203F1010321EA025122F40062B5
:1031B0009A1A48BF6FF0FE0241F48011352A3CD8BC
:1031C00030D0152A1ED3203A0CD90028C2F1200392
:1031D00021FA02F001FA03F218BF42F001024FF0A7
:1031E000000130E0C2F1000302F1200201FA03F114
:1031F00020FA02F241EA020100FA03F208464FF017
:10320000000120E0C2F1200310B400FA03F401FA37
:1032100003F320FA02F021FA02F1224610BC43EA3D
:10322000000010E050EA01324FF000004FF00001C2
:103230004FF0004218BF521C05E04FF001024FF062
:1032400000014FF000001CF4803F2CF4803C18BFBC
:1032500041F00041124208BF7047520003D303D02F
:10326000401C41F1000170475FEAAC72F8D4FAD11A
:10327000401C41F1000120F00100F4E77047704765
:10328000014800F079B800000000C07FC2154FEA85
:10329000002318BF43F0004305D4D2F19E020AD3A5
:1032A00023FA02F070474FEA4001B1F1FE4F02D21B
:1032B0004FF000007047DFF828C04FEA4001B1F13D
:1032C0007F4F88BF4CF4803C3FF6DAAF1CBF6FEAFB
:1032D000E0707047AFF300806FEAE0707047000065
:1032E0006800020410B5FFF7E9FD4FF0000101602E
:1032F00010BD00F0004343EAD05323F48073C3F1C0
:10330000C10323F0004117291FD8C3F1200310FA8D
:1033100003F1C3F1200320F07F4040F4000020FAC5
:1033200003F003F0004340EA03000DD00B465900C0
:1033300009D318BF401C06D17FEAE27398BF401C36
:1033400038BF20F0010070477047182903EB912324
:1033500018BF6FF00041013168BF03F0004009D68B
:10336000400203F0004000F1010004BF12F0004FE2
:1033700020F00100704770470CF00F03092B08BFC5
:10338000082000F02B800A2B0BD0082B18BF7047A9
:1033900008BF1CF0400F0AD04FF000004FF00001B2
:1033A00070471CF0400F18BF4FF0004070471CF0F2
:1033B000100F08D020F0704300F07F4242EAD301A2
:1033C0004FEA4370704700F0604021F07F4242EACC
:1033D000000201F07F4040EA727070471CF4801FC9
:1033E00011D01CF4E02F03D06FEACC3149007047B4
:1033F0004FF04050EFF3008222F0704242EA0002A8
:1034000082F3008870474FF0000070470000010011
:10341000020001000300010002000100040001009D
:10342000020001000300010002000100050001008C
:10343000020001000300010002000100040001007D
:10344000020001000300010002000100060001006B
:10345000020001000300010002000100040001005D
:10346000020001000300010002000100050001004C
:10347000020001000300010002000100040001003D
:10348000020001000300010002000100070001002A
:10349000020001000300010002000100040001001D
:1034A000020001000300010002000100050001000C
:1034B00002000100030001000200010004000100FD
:1034C00002000100030001000200010006000100EB
:1034D00002000100030001000200010004000100DD
:1034E00002000100030001000200010005000100CC
:1034F00002000100030001000200010004000100BD
:103500000200010003000100020001002C35000848
:1035100000000020300B00006C010008A43B0008F4
:10352000300B0020F00D0000C801000801241A2013
:1035300003290441180D030C102040408181818033
:1035400080800629071DFFFFFFFE044901400AF89D
:10355000FF7F7F3F1F0F03FF1FFC040404E01805DB
:10356000338870191E2A03232A0705290E39017191
:103570002BC64201427FD80FFFFEFEFDFDFBF0FE91
:10358000FDFBF8FFFCF3281C371810013A3928B866
:1035900010EFEBEFDF401B5AC1DBD8835BC0DFDFEE
:1035A000281C8D8684013ACE2819011EFBFCFDFDE6
:1035B000FC02ABFF3F5022041BCC449F3B040E286F
:1035C000180BBFBFBFA11BBB833BBB070ACAC07898
:1035D00048083E42221844427C501EFDFEFFF7F987
:1035E000A5CEFDFB7B7B7E2848081E21213E2021A5
:1035F0001E283C770755014E35BF4F75FE27A8089A
:103600008060100804040201BBFE7E010723FCFC5D
:10361000F8F0E0804A100121331818E512362448EA
:103620002808242424FE48484804392F280C3854FC
:103630005450301814145454383611500C44A4A863
:10364000A8A8541A2A2A2A441A30293008506EA4ED
:1036500094888976C5606020C04D020408087125F1
:10366000080804022B40200A29015D101020409117
:103670003DD63838D65C79A14AFEA3D1A95B0213A6
:103680007F4360603D01020204743C202040604C96
:10369000182442012A24F0195F4A70905410107CBB
:1036A0001A3C1B19326D1020427E10500904180478
:1036B0000202424438500C040C14242444447E0476
:1036C000041E8F7E4040405864202B1C24108960CB
:1036D0006C7E4444F379603A2485523C390B4E2683
:1036E0001A020224402913393A490649A4490633EB
:1036F00010202A029C874020100804025AFE045120
:10370000491B392569701A620F6A08501D38445ADE
:10371000AA016AB4B0500C1010182828243C444266
:1037200042E71EF8444444780E544244F82D3E4289
:1037300042800169302AF81C29015920B80CFC424A
:103740004848784848404242FC104C4040E0801BCA
:1037500044443E5C8E8444402AE73C2A7E054970FE
:103760006B7C10014A7C707A08013388F0500CEEB3
:10377000444850705048484444EE1AE05A39014ACF
:1037800042F31BEE6C012A540152D6580CC76262F8
:1037900052524A4A4A4646E2F04A820159802AFC7D
:1037A0007B2A7C4149A059206EB2CA4C3806202A97
:1037B0007C6F4B42E39018084242402018040216E6
:1037C000516BFE92B099D039016A3C1050094424E3
:1037D0002428281810101BD692015FAAAA6C444412
:1037E0004420480A2424181818242442E7C09D4481
:1037F00044282850300C7E840408081020204242BF
:10380000FC6A1E6D2901321E1D404020200B10084D
:10381000080804040402029B7808012278031C1C97
:103820002212FF4A6095F150083C421E2242423F5C
:103830001FC04040405864CF9364581B1C2215534E
:10384000221C2D060202022E9C42261B40567E4060
:1038500040423C3E0F1110107EAF927C38083E442F
:103860004438403C422229601B5C62405342E723BB
:1038700030309A70301B0C0C7019DD19011A44D1CC
:10388000393050084E4850684844EE492CC9602BE6
:10389000FE490192ED9ADC6049A0290149A0412A24
:1038A000D8E075447840E039D075221E02071CEE3E
:1038B0003220018AF8C06E42403C024270197A39C7
:1038C0008019A9712AC65F93463B9008E7422424D9
:1038D0002810109008D79292AAAA4444C8086E24CF
:1038E0001818182476306C1810109030087E440890
:1038F0001010227E2B0304013A0806130403DA0891
:1039000001113A608A192E290112600419304C43C2
:103910000319606022181A30211230200BDFF003E7
:10392000406004218018333A061812EC130718146B
:10393000383018136FF81009C0300320600C30C005
:103940001311803A261E12E0D21F180A30183FF0D9
:103950000C0CC00C07BA1208137FF81809420804AF
:1039600042083C7FF8065903990C150C423833C0C5
:10397000081060C002203FFC19CA100A0C18400C45
:10398000088004108C13EF701202280A0424307E81
:103990003BF004203003EA3F09161A3FF031402380
:1039A00020C0294882782A20D61708303FF03002FC
:1039B00049032808363FFFF8369830031D9A303601
:1039C00099032AB0031A98033915390310083018DF
:1039D000303030F020B26026180FFFFC0CEB0C0CDE
:1039E000031B0DFFF029091012080C80080C400879
:1039F0000C60080C30100C20100CB008200C0C27A8
:103A0000F3F0401211681B0C09FE080D86080586AC
:103A10004801A64841B64833B64813B64815B648DB
:103A200005032B09A603101439A448182048185878
:103A30000818440818860819023806A2181701A0A9
:103A40001001D80813880C138804128423FFFE1A6F
:103A500080031204180A803C0280047DC00408031D
:103A60002A400310104860048822050F34073814D8
:103A700006E01C04220E92061303881303041302AB
:103A8000061306031504023004180B300C20200C1A
:103A900020601410400310092408804408800405A5
:103AA0001304071A04211906700F0CC00418E0044F
:103AB000307804401E05800819985A1003D80A105F
:103AC00010181FFFF81810180319151B10101F8964
:103AD0002A29364903611788FC484850481019794B
:103AE000FC4820482078204BFE48204C507850C895
:103AF00088088809040A0213F83F120410080820F5
:103B000010403F80011012061018087FFC010409C4
:103B100020111021084504022B1040022013FDF84B
:103B2000104810481CC83048D0AA10AA51062202DA
:103B3000101D488844448444105010482040245CA0
:103B400045E0F840105E23E04044FC484030100857
:103B5000221C52E08A430610080247F8201021A0D8
:103B6000680B4007FCE444244427FC2406265454F4
:103B7000088FFE1C020821C01317FC78098003F887
:103B8000F20813F8120412281A4720B12D0102037B
:103B9000040420090607080902040608ACA24A0426
:043BA0001D291900C2
:0400000508000131BD
:00000001FF
